:0400000063EF00F0BA
:060008005F8269EF03F0C6
:100018005F80D8CF84F0E8CF85F0E0CF86F0FACFC4
:1000280087F0FBCF88F0E9CF89F0EACF8AF0E1CFFB
:100038008BF0E2CF8CF0D9CF8DF0DACF8EF0F3CF02
:100048008FF0F4CF90F0F6CF91F0F7CF92F0F8CF91
:1000580093F0F5CF94F05FC095F060C096F061C062
:1000680097F062C098F098C062F097C061F096C0AF
:1000780060F095C05FF094C0F5FF93C0F8FF92C0A0
:10008800F7FF91C0F6FF90C0F4FF8FC0F3FF8EC05A
:10009800DAFF8DC0D9FF8CC0E2FF8BC0E1FF8AC0B8
:1000A800EAFF89C0E9FF88C0FBFF87C0FAFF86C066
:1000B800E0FF85C0E8FF84C0D8FF5F9010009AEF8A
:1000C80005F0000E7E6E000E7F6E50EC08F0270ED5
:1000D80000019A6F100E996F3BEC08F0FF0EC2EC0E
:1000E80007F0970E00019A6F3F0E9B6FF4EC07F034
:1000F8007BEC08F08B9C8B9E949C949E880ED56E0E
:10010800F294F28A810ECD6E9E909D80B10EB16EF2
:10011800A192A082AFEC06F0F28CF28E04001AECE9
:1001280007F0ACC0D9FFADC0DAFF0001DFBE65D073
:10013800000EA36F16D001D812D00500FA6EB05188
:10014800FD6EB151FE6EFF6AFA50A351010DF350D6
:10015800A625D96EF450A721DA6EDF5012000001EF
:10016800A32B20EE01F0AC51D926AD51DA22DE5096
:10017800A35DD8A0E0D7ACC0D9FFADC0DAFFDFAC33
:100188001ED020EE01F0AC51D926AD51DA22400E36
:10019800DF6E20EE02F0AC51D926AD51DA22A6C0AE
:1001A800DFFF20EE03F0AC51D926AD51DA22A7517A
:1001B800DF6EACC0D9FFADC0DAFF880E1DD020EECF
:1001C80001F0AC51D926AD51DA22400EDF6E20EE97
:1001D80002F0AC51D926AD51DA22A6C0DFFF20EEDD
:1001E80003F0AC51D926AD51DA22A751DF6EACC06D
:1001F800D9FFADC0DAFFC80EDF6E82518311D8B4C3
:100208008DD7AAC0D9FFABC0DAFFDFBE87D79D9ACA
:10021800000EA46F82C0A5F0400EA56502D0400E66
:10022800A56F000EA46F1DD0600E8025D96E000E3C
:100238008121DA6EA451010DF350A825E16EF45026
:10024800A921E26EDFCFE7FF804B812B815104E1CA
:10025800200E805DD8A004D0000E816F000E806F44
:10026800A42BA551A45DD8A0DFD7A551825F000EAD
:10027800835B9D8AAAC0D9FFABC0DAFFDFAC1ED072
:1002880020EE01F0AA51D926AB51DA22A5C0DFFF32
:1002980020EE02F0AA51D926AB51DA22A8C0DFFF1E
:1002A80020EE03F0AA51D926AB51DA22A951DF6E0C
:1002B800AAC0D9FFABC0DAFF880E1DD020EE01F02E
:1002C800AA51D926AB51DA22A5C0DFFF20EE02F0F1
:1002D800AA51D926AB51DA22A8C0DFFF20EE03F0DD
:1002E800AA51D926AB51DA22A951DF6EAAC0D9FF8B
:1002F800ABC0DAFFC80EDF6E11D7000E506E000ECD
:100308004F6E000E426E000E416E59C0D9FF5AC0A2
:10031800DAFFDF501E6E600E1E161E50D8A403D0E2
:1003280083EC02F034D0200E1E18D8A430D020EE72
:1003380007F05950D9265A50DA22DF50146E14505B
:10034800166E156A20EE06F05950D9265A50DA2250
:10035800DF50176E186A15501710196E16501810BE
:100368001A6E19501A10D8A412D020EE01F0595064
:10037800D9265A50DA22DF501B6E1B50200AD8B4F7
:1003880006D0010AD8B403D0030AD8A4010A649895
:100398004F50D8A426D0000120EE01F0AE51D92646
:1003A800AF51DA22080EDF6E20EE02F0AE51D926E8
:1003B800AF51DA2259C0DFFF20EE03F0AE51D92643
:1003C800AF51DA225A50DF6EAEC0D9FFAFC0DAFFA4
:1003D800840EDF6E5DC0D9FF5EC0DAFF840EDF6E6B
:1003E800120059C0D9FF5AC0DAFFDFAE58D020EE4C
:1003F80006F05950D9265A50DA22DF50146E20EEF2
:1004080007F05950D9265A50DA22DF50156E145089
:100418001C6E15C01DF041501C5C42501D58D8B0D0
:1004280004D01CC041F01DC042F046EC05F0010E9E
:10043800506E000120EE01F0AE51D926AF51DA22FC
:10044800080EDF6E20EE02F0AE51D926AF51DA2247
:1004580059C0DFFF20EE03F0AE51D926AF51DA22A2
:100468005A50DF6EAEC0D9FFAFC0DAFF800EDF6E24
:1004780020EE02F05D50D9265E50DA2257C0DFFF29
:1004880020EE03F05D50D9265E50DA225850DF6E18
:100498005DC0D9FF5EC0DAFFC80EDF6E1200020E23
:1004A800506E20EE01F05D50D9265E50DA22000E23
:1004B800DF6E5DC0D9FF5EC0DAFFC80EDF6E0001D7
:1004C80020EE01F0AE51D926AF51DA22080EDF6EC8
:1004D80020EE02F0AE51D926AF51DA2257C0DFFF25
:1004E80020EE03F0AE51D926AF51DA225850DF6E14
:1004F800AEC0D9FFAFC0DAFFC80EDF6E120020EE23
:1005080001F05950D9265A50DA22DF50126E050EE2
:100518001218D8A405D0010E4F6E040E516E1200A9
:10052800060E1218D8A490D0010E4F6E20EE03F0DC
:100538005950D9265A50DA22DF50136E1304D8A422
:100548000ED0770E3E6E3F0E3F6E3E503F10D8A441
:10055800000E406E000E426E120E416E1200020E28
:100568001318D8A40ED0090E3E6E3F0E3F6E3E50B3
:100578003F10D8A4000E406E000E426E460E416E2B
:100588001200030E1318D8A439D020EE02F05950E7
:10059800D9265A50DA22DF50116E020E1118D8A44B
:1005A8000ED0650E3E6E3F0E3F6E3E503F10D8A4F3
:1005B800000E406E000E426E120E416E12001104C3
:1005C800D8A40ED04F0E3E6E3F0E3F6E3E503F10E9
:1005D800D8A4000E406E000E426E160E416E120038
:1005E800930E3E6E3F0E3F6E3E503F10D8A4000E55
:1005F800406E000E426E040E416E1200060E131875
:10060800D8A40ED0890E3E6E3F0E3F6E3E503F106E
:10061800D8A4000E406E000E426E0A0E416E120003
:10062800BB0E026E3F0E036E24EC08F013C00FF0F1
:10063800106A68EC08F0F30E026E3F0E036E24ECAD
:1006480008F0000E4F6E1200090E1218D8A415D02B
:10065800010E4F6E20EE02F05950D9265A50DA2278
:10066800DF50546E5450D8A403D0050E516E1200BA
:10067800060E516E7DEC04F01200080E1218D8A474
:1006880010D0010E4F6E540E3E6E000E3F6E3E505F
:100698003F10D8A4200E406E000E426E010E416E2F
:1006A8001200D50E026E3F0E036E24EC08F012C045
:1006B8000FF0106A68EC08F0F30E026E3F0E036E3E
:1006C80024EC08F083EC08F01200FACF24F0FBCFFA
:1006D80025F0E9CF26F0EACF27F0E1CF28F0E2CFE6
:1006E80029F0D9CF2AF0DACF2BF0F3CF2CF0F4CFC2
:1006F8002DF0F6CF2EF0F7CF2FF0F8CF30F0F5CF62
:1007080031F05FC032F060C033F061C034F062C0D5
:1007180035F0539049D05380A1A40BD05390A194A5
:1007280062B075EC07F062BA72EC08F062B6DBEC06
:1007380007F0F2A404D0F29453908BBC8B9C9EA03B
:1007480004D09E9053908BBE8B9EA1A22AD0A192DA
:100758008A0EB36ED00EB26E53904D504E10D8B470
:100768000ED08B8C4DC022F04EC023F0221E231ECB
:10077800224A232A22C0D6FF23C0D7FFF2944B5027
:100788004C10D8B40ED08B8E4BC022F04CC023F046
:10079800221E231E224A232A22C0CEFF23C0CFFFB7
:1007A8009E909EBA96EC08F053A0B5D735C062F07B
:1007B80034C061F033C060F032C05FF031C0F5FF83
:1007C80030C0F8FF2FC0F7FF2EC0F6FF2DC0F4FF92
:1007D8002CC0F3FF2BC0DAFF2AC0D9FF29C0E2FFE3
:1007E80028C0E1FF27C0EAFF26C0E9FF25C0FBFFBC
:1007F80024C0FAFF5F921100100E0D5C270E0E58F0
:10080800D8A00ED00DC001F00EC002F0270E046E65
:10081800100E036E37EC06F00150300F0CEC08F0A8
:10082800E80E0D5C030E0E58D8A018D0030E046E07
:10083800E80E036E0DC001F00EC002F037EC06F0B2
:1008480001C008F002C009F0000E0B6E0A0E0A6E15
:10085800F9EC06F00850300F0CEC08F00E5004E1EB
:10086800640E0D5CD8A018D0000E046E640E036EE2
:100878000DC001F00EC002F037EC06F001C008F020
:1008880002C009F0000E0B6E0A0E0A6EF9EC06F0B3
:100898000850300F0CEC08F00E5004E10A0E0D5C05
:1008A800D8A018D0000E046E0A0E036E0DC001F019
:1008B8000EC002F037EC06F001C008F002C009F0E3
:1008C800000E0B6E0A0E0A6EF9EC06F00850300F97
:1008D8000CEC08F00DC008F00EC009F0000E0B6E0D
:1008E8000A0E0A6EF9EC06F00850300F0CEC08F00E
:1008F8001200000E0F01546F548754855483548995
:10090800000E556F558755855583558920EE01F0A2
:100918005B50D9265C50DA22100EDF6E20EE02F012
:100928005B50D9265C50DA2255C0DFFF20EE03F079
:100938005B50D9265C50DA225650DF6E5BC0D9FF77
:100948005CC0DAFFC00EDF6E000120EE01F0AA5194
:10095800D926AB51DA22400EDF6E20EE02F0AA5102
:10096800D926AB51DA22A8C0DFFF20EE03F0AA5146
:10097800D926AB51DA22A951DF6EAAC0D9FFABC084
:10098800DAFFC00EDF6E20EE01F0AC51D926AD5172
:10099800DA22400EDF6E20EE02F0AC51D926AD51BE
:1009A800DA22A6C0DFFF20EE03F0AC51D926AD5104
:1009B800DA22A751DF6EACC0D9FFADC0DAFF880ECE
:1009C800DF6E1200000120EE01F0AE51D926AF51C2
:1009D800DA22DF50056E05504126000E4222F50E40
:1009E800026E3F0E036E24EC08F059C0D9FF5AC0BE
:1009F800DAFFDF5088EC06F020EE01F05950D926D6
:100A08005A50DA22DF5088EC06F020EE02F05950F6
:100A1800D9265A50DA22DF5088EC06F020EE03F08F
:100A28005950D9265A50DA22DF5088EC06F020EEC9
:100A380004F05950D9265A50DA22DF5088EC06F0D3
:100A480020EE05F05950D9265A50DA22DF5088ECAA
:100A580006F020EE06F05950D9265A50DA22DF5017
:100A680088EC06F020EE07F05950D9265A50DA22C1
:100A7800DF5088EC06F0F30E026E3F0E036E24EC96
:100A880008F0120041C005F042C006F0065004E12B
:100A9800090E055CD8A004D0000E066E080E056E7F
:100AA80020EE01F05D50D9265E50DA2205C0DFFF46
:100AB800000E046E25D00450010DF3503E24016E43
:100AC800F4503F20026E000E4020036E01C0F6FF76
:100AD80002C0F7FF03C0F8FF0450010DF35057247C
:100AE800D96EF4505820DA6EF8BA03D00800F550E1
:100AF80005D0F6CFE1FFF7CFE2FFE750DF6E042A1B
:100B08000450016E026A0550015C06500258D8A0D4
:100B1800D2D705C0E8FF3E2606C0E8FF3F22000EF8
:100B280040220550415E0650425A1200160EF66EDB
:100B3800110EF76E000EF86E00EEA6F010EE0CF037
:100B48000900F5CFEEFFE550E150FAE1220EF66E0E
:100B5800110EF76E000EF86E00EE55F010EE0AF06A
:100B68000900F5CFEEFFE550E150FAE101EE00F0A3
:100B780011EE00F0EE6AE550E150FCE1E250FAE1D6
:100B880000EE60F0240EEE6AE806FDE100EE36F0B5
:100B98001F0EEE6AE806FDE15F905F92000165EFC7
:100BA80000F0AEC0D9FFAFC0DAFFDF501F6E3C0EB9
:100BB8001F16340E1F18D8A403D081EC01F01200C0
:100BC800020E5018D8A41CD0E60E026E3F0E036E1B
:100BD80024EC08F0E6EC04F0AEC0D9FFAFC0DAFFB1
:100BE8000001DFAC06D0AEC0D9FFAFC0DAFF880E77
:100BF800DF6EAEC0D9FFAFC0DAFFC80EDF6E1200DD
:100C080060EC06F01200040E5118D8A410D020EEA3
:100C180002F05950D9265A50DA22DF500F015C6F82
:100C28005C51D8A402D0030E01D0050E516E5004B9
:100C3800D8A416D046EC05F05DC0D9FF5EC0DAFF37
:100C4800DFAC07D05DC0D9FF5EC0DAFF880EDF6E6B
:100C580012005DC0D9FF5EC0DAFFC80EDF6E120059
:100C680060EC06F01200000E066E000E056E0350D2
:100C78000410D8B41CD0010E076E04D0D8900336E7
:100C88000436072A04AEFAD7D8900536063603503C
:100C9800015C04500258D8A005D00350015E0450EE
:100CA800025A0580D89004320332072EEDD705C0CA
:100CB80001F006C002F01200000E506E000120EE96
:100CC80001F0AE51D926AF51DA22080EDF6E20EEC0
:100CD80002F0AE51D926AF51DA2259C0DFFF20EE1B
:100CE80003F0AE51D926AF51DA225A50DF6EAEC0AA
:100CF800D9FFAFC0DAFF8C0EDF6E5DC0D9FF5EC0D2
:100D0800DAFF000EDF6E1200046E04380F0B026E5D
:100D1800036AF90E0224F66E3E0E0320F76EF86A97
:100D2800000EF8220800F5500CEC08F004500F0BE8
:100D3800026E036AF90E0224F66E3E0E0320F76E69
:100D4800F86A000EF8220800F5500CEC08F0200EA6
:100D58000CEC08F01200000E0001996F070E99655F
:100D680001D00CD09951010DF350AE25D96EF45035
:100D7800AF21DA6E000EDF6E992BF0D7140E616E7C
:100D8800080E646E040064BAFDD7000E626E000E91
:100D9800606EA1946080608A6086A084020E516EA5
:100DA800120000019B6F5250010D360EF324D96ECC
:100DB800000EF420DA6E9BC0DFFF522A030E526445
:100DC8001200BA0E0001B06F100EB16FF29E3750CC
:100DD800996F36504D6E99C04EF03950996F385012
:100DE8004B6E99C04CF0F28E12000A500B10D8B41A
:100DF80018D0010E0C6E04D0D8900A360B360C2A87
:100E08000BAEFAD70A50085C0B500958D8A004D08A
:100E18000A50085E0B50095AD8900B320A320C2E31
:100E2800F1D708C008F009C009F01200ABA203D03E
:100E3800AB92AB98AB889EA8120049504A10D8B420
:100E48001200000E4524D96E010E4620DA6EDF50DE
:100E5800AD6E454A462A4604D8A004D0000E466E18
:100E6800000E456E4906D8A04A061200ABA203D070
:100E7800AB92AB98AB889EA8120049504A10D8B4E0
:100E88001200000E4524D96E010E4620DA6EDF509E
:100E9800AD6E454A462A4604D8A004D0000E466ED8
:100EA800000E456E4906D8A04A0612000001996F47
:100EB800E50E00019919D8A407D0AA0EB06F0D0E3F
:100EC800B16F000E526E12009929D8A405D0520EA7
:100ED800B06F0F0EB16F1200BA0EB06F100EB16F77
:100EE8001200000E626E000E0F015C6F000E536F51
:100EF80053855383538906D0629600F000F000F0C2
:100F080000F000F062B6F8D7649860EC06F0000EC6
:100F1800546E030E516E12000001996FD40E000139
:100F28009919D8A405D0B40EB06F0E0EB16F120087
:100F38009929D8A405D0520EB06F0F0EB16F1200C8
:100F4800BA0EB06F100EB16F12000001996F2D0E1E
:100F580000019919D8A405D0200EB06F0F0EB16FFB
:100F680012009929D8A405D0520EB06F0F0EB16F98
:100F78001200BA0EB06F100EB16F12000001996F17
:100F88004A04D8B01200000E4724D96E010E48203A
:100F9800DA6E99C0DFFF474A482A494A4A2A480474
:100FA800D8A01200000E486E000E476E1200635063
:100FB800D8A403D0D5EC05F011D06350D8A402D042
:100FC800010E01D0000E206E216A040E2012000EC0
:100FD800211220502110D8A407EC06F062961200C6
:100FE8000CD09AC0F6FF9BC0F7FFF86A0800F550CE
:100FF800C2EC07F000019A4B9B2B9AC0F6FF9BC0EE
:10100800F7FFF86A0800F5500009D8B41200E9D7CC
:10101800016E4A04D8B01200000E4724D96E010EA2
:101028004820DA6E01C0DFFF474A482A494A4A2A5F
:101038004804D8A01200000E486E000E476E120039
:101048000BD002C0F6FF03C0F7FFF86A0800F5509E
:101058000CEC08F0024A032A02C0F6FF03C0F7FFAF
:10106800F86A0800F5500009D8B41200EAD7030E50
:101078000001995F000E9A5B000E9C6F000E9B6F3B
:1010880004D000F000019B4B9C2B99519B5D9A5119
:101098009C59D8B01200F5D7900EAB6E240EAC6EEA
:1010A800080EB86E000EB06E670EAF6E9E9A9D8ADF
:1010B80012000001996F00019929D8A41200520E5C
:1010C800B06F0F0EB16F12000FC00DF010C00EF010
:1010D80000EC04F0200E0CEC08F012000F0153A1F4
:1010E80004D060EC06F00F015391629A120002D00E
:1010F8001AEC07F049504A10D8B41200F9D702D0B8
:101108003AEC07F049504A10D8B41200F9D77802DF
:101118003802140210020002BA1028022002180233
:0C1128000C0204025390AECF01F0120044
:103EF80000303132333435363738396162636465BE
:103F080066090246000201008032080B0002020224
:103F1800010009040000010202010005240010014B
:103F2800042402000524060001070581031000206F
:103F380009040100020A000000070582024000008F
:103F48000705020240000016034D0063004C00699B
:103F5800006F006E00680065006100640012035283
:103F6800004F0042004F0054004900430053001224
:103F7800011001EF020108D8040B00030001020040
:103F8800010A060002000000080100040309040AEF
:103F98000A0A0A57656C636F6D6520746F20736534
:103FA80072766F2F495220636F6E74726F6C6C65F6
:103FB800720A00756E6B6E6F776E2064657363723C
:103FC8006970746F7220747970653A2000756E6B31
:103FD8006E6F776E207265717565737420006374F7
:103FE800726C5F6F757470757420330A0063747235
:083FF8006C5F6F75742000007E
:020000040020DA
:08000000FFFFFFFFFFFFFFFF00
:020000040030CA
:0E00000000311F1FFF8880FF03C003E0034094
:00000001FF
