:0400000063EF00F0BA
:060008004E8201EF05F03D
:100018004E80D8CF88F0E8CF89F0E0CF8AF0FACFC9
:100028008BF0FBCF8CF0E9CF8DF0EACF8EF0E1CFEB
:100038008FF0E2CF90F0D9CF91F0DACF92F0F3CFF2
:1000480093F0F4CF94F0F6CF95F0F7CF96F0F8CF81
:1000580097F0F5CF98F04EC099F04FC09AF050C085
:100068009BF051C09CF09CC051F09BC050F09AC0CE
:100078004FF099C04EF098C0F5FF97C0F8FF96C0B2
:10008800F7FF95C0F6FF94C0F4FF93C0F3FF92C04A
:10009800DAFF91C0D9FF90C0E2FF8FC0E1FF8EC0A8
:1000A800EAFF8DC0E9FF8CC0FBFF8BC0FAFF8AC056
:1000B800E0FF89C0E8FF88C0D8FF4E901000DBEF52
:1000C80006F0000E7E6E000E7F6E8B8C949C8A9CD0
:1000D800939C49EC09F0270E00019E6F100E9D6F4E
:1000E80021EC09F0FF0E90EC08F09F0E00019E6FC6
:1000F8003F0E9F6FDCEC08F06AEC09F0840ED56EB9
:10010800FE0ED76E890ED66EF294F28A33EC06F0A4
:10011800F0EC07F0F28CF28E040069EC03F0B1C049
:10012800D9FFB2C0DAFF0001DFBE67D00BEC09F0DF
:10013800000E0001A86F0ED09EA8FED70001A8519E
:10014800010DF350AB25D96EF450AC21DA6EDF50B7
:10015800AD6EA82B20EE01F0B151D926B251DA22AA
:10016800DE50A85DD8A0E8D79EA8FED7ACA2FED7DF
:1001780056EC09F0B1C0D9FFB2C0DAFF0001DFAC1C
:100188001ED020EE01F0B151D926B251DA22400E2C
:10019800DF6E20EE02F0B151D926B251DA22ABC09F
:1001A800DFFF20EE03F0B151D926B251DA22AC516B
:1001B800DF6EB1C0D9FFB2C0DAFF880E1DD020EEC5
:1001C80001F0B151D926B251DA22400EDF6E20EE8D
:1001D80002F0B151D926B251DA22ABC0DFFF20EECE
:1001E80003F0B151D926B251DA22AC51DF6EB1C059
:1001F800D9FFB2C0DAFFC80EDF6E3D503E10D8B44A
:100208008BD7AFC0D9FFB0C0DAFFDFBE85D79D9AC4
:10021800000EA96F3DC0AAF0400EAA6502D0400E9C
:10022800AA6F000EA96F1DD0600E8425D96E000E2E
:100238008521DA6EA951010DF350AD25E16EF45018
:10024800AE21E26EDFCFE7FF844B852B855104E1B9
:10025800200E845DD8A004D0000E856F000E846F38
:10026800A92BAA51A95DD8A0DFD7AA513D5E000EDF
:100278003E5A9D8AAFC0D9FFB0C0DAFFDFAC1ED0AE
:1002880020EE01F0AF51D926B051DA22AAC0DFFF23
:1002980020EE02F0AF51D926B051DA22ADC0DFFF0F
:1002A80020EE03F0AF51D926B051DA22AE51DF6EFD
:1002B800AFC0D9FFB0C0DAFF880E1DD020EE01F024
:1002C800AF51D926B051DA22AAC0DFFF20EE02F0E2
:1002D800AF51D926B051DA22ADC0DFFF20EE03F0CE
:1002E800AF51D926B051DA22AE51DF6EAFC0D9FF77
:1002F800B0C0DAFFC80EDF6E0FD7000E406E000EDA
:100308003F6E000E386E000E376E48C0D9FF49C0E8
:10031800DAFFDF501E6E600E1E161E50D8A403D0E2
:1003280083EC02F034D0200E1E18D8A430D020EE72
:1003380007F04850D9264950DA22DF50146E14507D
:10034800166E156A20EE06F04850D9264950DA2272
:10035800DF50176E186A15501710196E16501810BE
:100368001A6E19501A10D8A412D020EE01F0485075
:10037800D9264950DA22DF501B6E1B50200AD8B408
:1003880006D0010AD8B403D0030AD8A4010A649895
:100398003F50D8A426D0000120EE01F0B351D92651
:1003A800B451DA22080EDF6E20EE02F0B351D926DE
:1003B800B451DA2248C0DFFF20EE03F0B351D9264A
:1003C800B451DA224950DF6EB3C0D9FFB4C0DAFFA6
:1003D800840EDF6E4CC0D9FF4DC0DAFF840EDF6E8D
:1003E800120048C0D9FF49C0DAFFDFAE58D020EE6E
:1003F80006F04850D9264950DA22DF50146E20EE14
:1004080007F04850D9264950DA22DF50156E1450AB
:100418001C6E15C01DF037501C5C38501D58D8B0E4
:1004280004D01CC037F01DC038F087EC06F0010E70
:10043800406E000120EE01F0B351D926B451DA2202
:10044800080EDF6E20EE02F0B351D926B451DA223D
:1004580048C0DFFF20EE03F0B351D926B451DA22A9
:100468004950DF6EB3C0D9FFB4C0DAFF800EDF6E2B
:1004780020EE02F04C50D9264D50DA2246C0DFFF5C
:1004880020EE03F04C50D9264D50DA224750DF6E4B
:100498004CC0D9FF4DC0DAFFC80EDF6E1200020E45
:1004A800406E20EE01F04C50D9264D50DA22000E55
:1004B800DF6E4CC0D9FF4DC0DAFFC80EDF6E0001F9
:1004C80020EE01F0B351D926B451DA22080EDF6EBE
:1004D80020EE02F0B351D926B451DA2246C0DFFF2C
:1004E80020EE03F0B351D926B451DA224750DF6E1B
:1004F800B3C0D9FFB4C0DAFFC80EDF6E120020EE19
:1005080001F04850D9264950DA22DF50126E050E04
:100518001218D8A405D0010E3F6E040E416E1200C9
:10052800060E1218D8A490D0010E3F6E20EE03F0EC
:100538004850D9264950DA22DF50136E1304D8A444
:100548000ED07F0E346E3F0E356E34503510D8A461
:10055800000E366E000E386E120E376E1200020E46
:100568001318D8A40ED0030E346E3F0E356E3450D7
:100578003510D8A4000E366E000E386E460E376E53
:100588001200030E1318D8A439D020EE02F04850F8
:10059800D9264950DA22DF50116E020E1118D8A45C
:1005A8000ED0490E346E3F0E356E34503510D8A437
:1005B800000E366E000E386E200E376E12001104D3
:1005C800D8A40ED0690E346E3F0E356E34503510F7
:1005D800D8A4000E366E000E386E160E376E120056
:1005E8009B0E346E3F0E356E34503510D8A4000E75
:1005F800366E000E386E040E376E1200060E131893
:10060800D8A40ED0910E346E3F0E356E345035108E
:10061800D8A4000E366E000E386E0A0E376E120021
:10062800BB0E026E3F0E036EF4EC08F013C00FF021
:10063800106A60EC09F0F30E026E3F0E036EF4ECE4
:1006480008F0000E3F6E1200090E1218D8A415D03B
:10065800010E3F6E20EE02F04850D9264950DA22AA
:10066800DF50436E4350D8A403D0050E416E1200EC
:10067800060E416E6AEC05F01200080E1218D8A496
:1006880010D0010E3F6E430E346E000E356E34509E
:100698003510D8A4200E366E000E386E010E376E57
:1006A8001200D50E026E3F0E036EF4EC08F012C075
:1006B8000FF0106A60EC09F0F30E026E3F0E036E45
:1006C800F4EC08F073EC09F01200ABA203D0AB9283
:1006D800AB98AB88000182518311D8B41200000E88
:1006E8008025D96E010E8121DA6EDF50A16F804B13
:1006F800812B8105D8A004D0000E816F000E806F79
:100708008207D8A083078B9C000E9E6F1A0E9D6FE0
:1007180021EC09F00001A1A102D08B8C01D08B9CA7
:10072800000E00019E6F1A0E9D6F21EC09F000016A
:10073800A1A302D08B8C01D08B9C000E00019E6F70
:100748001A0E9D6F21EC09F00001A1A502D08B8C37
:1007580001D08B9C000E00019E6F1A0E9D6F21EC3C
:1007680009F00001A1A702D08B8C01D08B9C000E50
:1007780000019E6F1A0E9D6F21EC09F00001A1A9DE
:1007880002D08B8C01D08B9C000E00019E6F1A0E3C
:100798009D6F21EC09F00001A1AB02D08B8C01D038
:1007A8008B9C000E00019E6F1A0E9D6F21EC09F0C4
:1007B8000001A1AD02D08B8C01D08B9C000E0001F2
:1007C8009E6F1A0E9D6F21EC09F00001A1AF02D0B7
:1007D8008B8C01D08B9C000E00019E6F1A0E9D6FB2
:1007E80021EC09F08B8C000E00019E6F1A0E9D6F94
:1007F80021EC09F01200ABA203D0AB92AB98AB8806
:10080800000182518311D8B41200000E8025D96EE0
:10081800010E8121DA6EDF50056E804B812B810538
:10082800D8A004D0000E816F000E806F8207D8A078
:1008380083078B9C000E026E1A0E016E36EC09F0CF
:1008480005A002D08B8C01D08B9C000E026E1A0E74
:10085800016E36EC09F005A202D08B8C01D08B9C7E
:10086800000E026E1A0E016E36EC09F005A402D0D5
:100878008B8C01D08B9C000E026E1A0E016E36EC2A
:1008880009F005A602D08B8C01D08B9C000E026E5D
:100898001A0E016E36EC09F005A802D08B8C01D037
:1008A8008B9C000E026E1A0E016E36EC09F005AA3A
:1008B80002D08B8C01D08B9C000E026E1A0E016E3A
:1008C80036EC09F005AC02D08B8C01D08B9C000E65
:1008D800026E1A0E016E36EC09F005AE02D08B8C52
:1008E80001D08B9C000E026E1A0E016E36EC09F0D8
:1008F8008B8C000E026E1A0E016E36EC09F0120097
:10090800100E0D5C270E0E58D8A00ED00DC001F0A9
:100918000EC002F0270E046E100E036E78EC07F07E
:100928000150300FC3EC08F0E80E0D5C030E0E58B2
:10093800D8A018D0030E046EE80E036E0DC001F0A7
:100948000EC002F078EC07F001C008F002C009F010
:10095800000E0B6E0A0E0A6E16EC08F00850300FE7
:10096800C3EC08F00E5004E1640E0D5CD8A018D05A
:10097800000E046E640E036E0DC001F00EC002F08E
:1009880078EC07F001C008F002C009F0000E0B6E09
:100998000A0E0A6E16EC08F00850300FC3EC08F087
:1009A8000E5004E10A0E0D5CD8A018D0000E046E9B
:1009B8000A0E036E0DC001F00EC002F078EC07F0CD
:1009C80001C008F002C009F0000E0B6E0A0E0A6E94
:1009D80016EC08F00850300FC3EC08F00DC008F012
:1009E8000EC009F0000E0B6E0A0E0A6E16EC08F027
:1009F8000850300FC3EC08F01200FACF22F0FBCFFA
:100A080023F0E9CF24F0EACF25F0E1CF26F0E2CFBA
:100A180027F0D9CF28F0DACF29F0F3CF2AF0F4CF96
:100A28002BF0F6CF2CF0F7CF2DF0F8CF2EF0F5CF36
:100A38002FF04EC030F04FC031F050C032F051C0EE
:100A480033F042901BD04280A1A40BD04290A194D5
:100A580062B075EC08F062BA7CEC09F062B6AAECF8
:100A680008F0F2A408D0F294FE0ED76E890ED66E66
:100A78000001864B872B9EBA37EC08F042A0E3D7DB
:100A880033C051F032C050F031C04FF030C04EF09A
:100A98002FC0F5FF2EC0F8FF2DC0F7FF2CC0F6FFC2
:100AA8002BC0F4FF2AC0F3FF29C0DAFF28C0D9FF02
:100AB80027C0E2FF26C0E1FF25C0EAFF24C0E9FF06
:100AC80023C0FBFF22C0FAFF4E921100000E0F0157
:100AD800546F5487548554835489000E556F558735
:100AE80055855583558920EE01F04A50D9264B503B
:100AF800DA22100EDF6E20EE02F04A50D9264B5053
:100B0800DA2244C0DFFF20EE03F04A50D9264B50CA
:100B1800DA224550DF6E4AC0D9FF4BC0DAFFC00E5B
:100B2800DF6E000120EE01F0AF51D926B051DA2274
:100B3800400EDF6E20EE02F0AF51D926B051DA2216
:100B4800ADC0DFFF20EE03F0AF51D926B051DA2255
:100B5800AE51DF6EAFC0D9FFB0C0DAFFC00EDF6E96
:100B680020EE01F0B151D926B251DA22400EDF6EE3
:100B780020EE02F0B151D926B251DA22ABC0DFFF24
:100B880020EE03F0B151D926B251DA22AC51DF6E12
:100B9800B1C0D9FFB2C0DAFF880EDF6E12000001C3
:100BA80020EE01F0B351D926B451DA22DF50056E98
:100BB80005503726000E3822F50E026E3F0E036EE2
:100BC800F4EC08F048C0D9FF49C0DAFFDF50C9EC9F
:100BD80007F020EE01F04850D9264950DA22DF50BC
:100BE800C9EC07F020EE02F04850D9264950DA2225
:100BF800DF50C9EC07F020EE03F04850D9264950E1
:100C0800DA22DF50C9EC07F020EE04F04850D9266C
:100C18004950DA22DF50C9EC07F020EE05F04850C1
:100C2800D9264950DA22DF50C9EC07F020EE06F049
:100C38004850D9264950DA22DF50C9EC07F020EE97
:100C480007F04850D9264950DA22DF50C9EC07F09E
:100C5800F30E026E3F0E036EF4EC08F012008B8464
:100C680094948B9094908B929492CA0E00019E6FEC
:100C7800810E9D6F58EC08F0CA0E00019E6F830E1E
:100C88009D6F58EC08F0800E00019E6F330E9D6F2B
:100C980058EC08F0C40E00019E6FD70E9D6F58ECFB
:100CA80008F0AF0E00019E6F3F0E9D6F58EC08F0E4
:100CB800C60E00019E6F030E9D6F58EC08F0820E61
:100CC80000019E6F010E9D6F58EC08F0940E000114
:100CD8009E6F200E9D6F58EC08F0980E00019E6FD5
:100CE800F00E9D6F58EC08F0C20E00019E6F3C0E8E
:100CF8009D6F58EC08F0820E00019E6F810E9D6F6B
:100D080058EC08F0120037C005F038C006F006505D
:100D180004E1090E055CD8A004D0000E066E080E8A
:100D2800056E20EE01F04C50D9264D50DA2205C050
:100D3800DFFF000E046E25D00450010DF35034245B
:100D4800016EF4503520026E000E3620036E01C08D
:100D5800F6FF02C0F7FF03C0F8FF0450010DF3507F
:100D68004624D96EF4504720DA6EF8BA03D008004A
:100D7800F55005D0F6CFE1FFF7CFE2FFE750DF6E81
:100D8800042A0450016E026A0550015C065002589C
:100D9800D8A0D2D705C0E8FF342606C0E8FF352220
:100DA800000E36220550375E0650385A1200140ECF
:100DB800F66E130EF76E000EF86E00EEABF010EE46
:100DC8000AF00900F5CFEEFFE550E150FAE10A0E0E
:100DD800F66E130EF76E000EF86E00EE44F010EE8D
:100DE8000AF00900F5CFEEFFE550E150FAE101EE17
:100DF80000F011EE00F0EE6AE550E150FCE1E2503F
:100E0800FAE100EE60F0280EEE6AE806FDE100EE79
:100E180034F0100EEE6AE806FDE14E904E920001A5
:100E280065EF00F0B3C0D9FFB4C0DAFFDF501F6E22
:100E38003C0E1F16340E1F18D8A403D081EC01F005
:100E48001200020E4018D8A41CD0E60E026E3F0E07
:100E5800036EF4EC08F0D3EC05F0B3C0D9FFB4C0CE
:100E6800DAFF0001DFAC06D0B3C0D9FFB4C0DAFFA7
:100E7800880EDF6EB3C0D9FFB4C0DAFFC80EDF6ECC
:100E88001200A1EC07F01200040E4118D8A410D0EB
:100E980020EE02F04850D9264950DA22DF500F01DF
:100EA8005C6F5C51D8A402D0030E01D0050E416ED0
:100EB8004004D8A416D087EC06F04CC0D9FF4DC02A
:100EC800DAFFDFAC07D04CC0D9FF4DC0DAFF880E7F
:100ED800DF6E12004CC0D9FF4DC0DAFFC80EDF6EBE
:100EE8001200A1EC07F01200000E066E000E056E4F
:100EF80003500410D8B41CD0010E076E04D0D8904B
:100F080003360436072A04AEFAD7D89005360636D3
:100F18000350015C04500258D8A005D00350015E6C
:100F28000450025A0580D89004320332072EEDD7B8
:100F380005C001F006C002F01200000E406E00016C
:100F480020EE01F0B351D926B451DA22080EDF6E33
:100F580020EE02F0B351D926B451DA2248C0DFFF9F
:100F680020EE03F0B351D926B451DA224950DF6E8E
:100F7800B3C0D9FFB4C0DAFF8C0EDF6E4CC0D9FF06
:100F88004DC0DAFF000EDF6E1200046E04380F0B3E
:100F9800026E036AF30E0224F66E3E0E0320F76E0D
:100FA800F86A000EF8220800F550C3EC08F0045067
:100FB8000F0B026E036AF30E0224F66E3E0E032038
:100FC800F76EF86A000EF8220800F550C3EC08F036
:100FD800200EC3EC08F01200000E00019D6F070EF2
:100FE8009D6501D00CD09D51010DF350B325D96EEC
:100FF800F450B421DA6E000EDF6E9D2BF0D7140E7C
:10100800616E080E646E040064BAFDD7000E626E4D
:10101800000E606EA1946080608A6086A084020ED3
:10102800416E12000A500B10D8B418D0010E0C6E85
:1010380004D0D8900A360B360C2A0BAEFAD70A50D1
:10104800085C0B500958D8A004D00A50085E0B5011
:10105800095AD8900B320A320C2EF1D708C008F082
:1010680009C009F012004290AECF01F03E501BE1DA
:10107800200E3D5CD8B01200600E3B24D96E000EE5
:101088003C20DA6E01C0DFFF3B4A3C2A3D4A3E2A3B
:101098003C5004E1200E3B5CD8A01200000E3C6ED0
:1010A800000E3B6E120012008B94000E0001A06F20
:1010B8000F0EA06501D013D09EAF03D09F6B9F2B5E
:1010C80002D000019F6B8B509F19FE0B9F198B6EEE
:1010D800D8909D379E378B828B92A02BE9D78B8433
:1010E8001200000E626E000E0F015C6F000E536F4F
:1010F80053855383538906D0629600F000F000F0C0
:1011080000F000F062B6F8D76498A1EC07F0000E82
:10111800436E030E416E120000019D6F00018305AE
:10112800D8B01200000E3924D96E010E3A20DA6EBA
:101138009DC0DFFF394A3A2A824B832B3A04D8A054
:101148001200000E3A6E000E396E12006350D8A4D9
:1011580003D016EC07F011D06350D8A402D0010ECA
:1011680001D0000E206E216A040E2012000E2112FA
:1011780020502110D8A448EC07F062961200016EA6
:1011880000018305D8B01200000E3924D96E010E73
:101198003A20DA6E01C0DFFF394A3A2A824B832BA4
:1011A8003A04D8A01200000E3A6E000E396E1200F2
:1011B8000CD09EC0F6FF9FC0F7FFF86A0800F550F4
:1011C80090EC08F000019E4B9F2B9EC0F6FF9FC03D
:1011D800F7FFF86A0800F5500009D8B41200E9D7FB
:1011E8000BD002C0F6FF03C0F7FFF86A0800F550FD
:1011F800C3EC08F0024A032A02C0F6FF03C0F7FF57
:10120800F86A0800F5500009D8B41200EAD7AB9A7A
:10121800AC8A820E00019E6F210E9D6F58EC08F07B
:10122800000E0001876F000E866F875105E10A0ED8
:10123800865DD8B01200F9D71200030E00019D5F39
:10124800000E9E5B000EA06F000E9F6F04D000F092
:1012580000019F4BA02B9D519F5D9E51A059D8B076
:101268001200F5D7030E015E000E025A000E046E3E
:10127800000E036E03D000F0034A042A0150035CF9
:1012880002500458D8B01200F6D7900EAB6E040E78
:10129800AC6E080EB86E050EB06EB70EAF6E9E9AA5
:1012A8009D8A1200AC9AAB8A820E00019E6F810E55
:1012B8009D6F58EC08F012000FC00DF010C00EF032
:1012C80084EC04F0200EC3EC08F0120002D069ECA4
:1012D80003F0000182518311D8B41200F8D702D06C
:1012E800FFEC03F0000182518311D8B41200F8D743
:1012F8000F0153A104D0A1EC07F00F015391629A9A
:1013080012002802200218020C0204027802380295
:06131800140210020002A5
:103EF20000303132333435363738396162636465C4
:103F020066090246000201008032080B000202022A
:103F12000100090400000102020100052400100151
:103F22000424020005240600010705810310002075
:103F320009040100020A0000000705820240000095
:103F4200070502024000002003570065006100746B
:103F52000068006500720020005300740061007464
:103F62000069006F006E0016034D0063004C00698B
:103F7200006F006E006800650061006400120110AD
:103F820001EF020108D8040B000300010200010A3C
:103F9200060002000000080100040309040A0A0ADC
:103FA2000A57656C636F6D6520746F207472616E61
:103FB200736365697665720A00756E6B6E6F776EF4
:103FC2002064657363726970746F722074797065AE
:103FD2003A2000756E6B6E6F776E20726571756533
:103FE200737420006374726C5F6F757470757420E3
:0E3FF200330A006374726C5F6F7574200000F8
:020000040020DA
:08000000FFFFFFFFFFFFFFFF00
:020000040030CA
:0E00000000311F1FFF8880FF03C003E0034094
:00000001FF
